:03000000020214E5
:0C021400787FE4F6D8FD75815002025B93
:1004EE0012393F065B4F666D7D077F6F777C395EF5
:0404FE007971733766
:0A04BD00EF1FAC0670011E4C600F2B
:0D04C70000750A02750BC7D50BFDD50AFAAA
:0304D40080E7229C
:10050300758901758CDC758A2AD2AFD2A9C28C2277
:10031400E4FDEDB40800504D900323F8282873023F
:10032400033B02033F02034702034B02035302034E
:100334005702035F020363C2A28002D2A2C2A3C215
:10034400A48022C2A28002D2A2D2A3C2A48016C2D6
:10035400A28002D2A2C2A3D2A4800AC2A28002D2E4
:10036400A2D2A3D2A474262DF8E6F5807F017E00E4
:0C0374001204BDE4F5800DED64087096E5
:01038000225A
:10018100E4F50975900FE590640F70030202137F87
:100191000A7E001204BDE590640F605375900FAFA5
:1001A10090EF24F5601224FE601514601924077085
:1001B1001AE4F536D2008013753601D200800C7531
:1001C1003602D2008005753603D2007590F0AF90EB
:1001D100EF2450600C24E0600C24F0600C2470804B
:1001E1000E7404800674088002740C2536F536AF4F
:1001F10009EF3395E0FEC3EF9496EE64809480504E
:1002010011E59064F0600B7F017E001204BD0509C9
:0202110080DD8E
:0102130022C8
:10000E007536FFE5226401703F744B252EF8A60766
:10001E00852E09E509D39400401274252509F8E6CA
:10002E00FE74262509F8A606150980E774392FF8FF
:10003E00E6FE74262509F8A606052EE52EB406085A
:10004E00E4F52EF522752101E5236401706D742F00
:10005E00252EF8A607852E09E509D39400401274C3
:10006E00252509F8E6FE74262509F8A60615098049
:10007E00E774392FF8E6FF74262509F8A607052E32
:10008E00E52E64067035F52EF523F50A742F250A34
:10009E00F8E6FDAF0A1204D7050AE50AC394064036
:1000AE00EB753701D28CC2A0E4F50A7426250AF846
:0B00BE00E4F6050AE50AB408F2D2A738
:0100C9002214
:100483007536FFC28CE4F524752D407F077826E48A
:0E049300F608DFFC752201C2A6E4F523D2A70D
:0104A1002238
:100381007536FFE522B40106120483E4F52EE52358
:10039100B40118E4FF742F2FF8E4F674262FF8E463
:0B03A100F60FBF07F0E4F52E85452D98
:0103AC00222E
:1003FD007536FFE525B4011BE4F52585452D7F07F1
:10040D007826E4F608DFFC752301E4F522F537C202
:03041D008CF52437
:0104200022B9
:100443007F087826E4F608DFFCD2A5D2A6D2A7D28D
:10045300A0E4F52EF537F522F52312050302053145
:1002A000300070E536B4100050699002B1F828288B
:1002B000730202E10202E50202E90202ED0202F12A
:1002C0000202F50202F90202FD0203010203050225
:1002D000031302031302031302030A02030D0203B2
:1002E00010E4FF80227F01801E7F02801A7F03803E
:1002F000167F0480127F05800E7F06800A7F0780AC
:10030000067F0880027F0902000E0203810203FDBE
:04031000120483222E
:1000CA00120443E4F508AF08120463742F2508F8F4
:1000DA00A6070508E508C3940640EB12018112023F
:1000EA00A0120314C200E52164017051F521F5083C
:1000FA00742F2508F8E6FF744B2508F8E6B50705BE
:10010A00752501800575250280070508E508B406EE
:10011A00DFD28CE525B4011BC2A085392DE4F52C6C
:10012A00F52BF52A853929854928854727854A26C1
:10013A00753701E525B40205C2A5753702E537B45E
:10014A000117E524B4051220000AE4F524C28C1232
:10015A0004438005C200E4F524E537640260030223
:10016A0000E5E524640560030200E5F524C28CD2AB
:07017A00A51204430200E599
:03000B000204A24A
:1004A200C0E0C0D0758CDC758A2A0538E538B464A2
:0B04B200057538000524D0D0D0E032E2
:040003007F02DFFE9B
:0100070022D6
:0F051300D2A0120003D2A1120003C2A002000363
:0F052200C2A0120003D2A1120003D2A002000354
:0B03D7001204211203E2AF0412042103
:1003E200E4FED2A112000330A009EEC394FA500336
:0B03F2000E80F4120003C2A102000301
:0A053100D2A1120003D2A0020003C1
:10042100AE07E4FDEE25E0FEC2A112000392A01288
:100431000003D2A10DBD08ECC2A1120003D2A0029B
:020441000003B6
:1003AD00C2A1120003D2A0120003E4FDD2A11200DB
:1003BD0003EE25E0FFA2A0E4334FFE120003C2A11D
:0903CD001200030DBD08E5AF06A6
:0103D6002204
:1004D700AC05AB071205137FA01204211203E2AF8C
:0704E700031203D7020522F6
:02046300AC07E4
:100465001205137FA01203D71205137FA1120421D1
:0D0475001203E21203ADAE07120522AF061E
:010482002257
:100220000200CAE493A3F8E493A34003F68001F22A
:1002300008DFF48029E493A3F85407240CC8C333DF
:10024000C4540F4420C8834004F456800146F6DFAE
:10025000E4800B01020408102040809004EEE47E4C
:10026000019360BCA3FF543F30E509541FFEE493A3
:10027000A360010ECF54C025E060A840B8E493A36A
:10028000FAE493A3F8E493A3C8C582C8CAC583CA95
:10029000F0A3C8C582C8CAC583CADFE9DEE780BE4D
:0105020000F8
:00000001FF
