:030000000202C930
:0C02C900787FE4F6D8FD7581290203104F
:0C0590000A1D3F065B4F666D7D077F6F04
:10053D001204DA12023B1203551200E2E50CB4016B
:0D054D0007AF101201AB80EB1203D480E663
:1003D400E4F527C374079527B40800504D9003E84B
:1003E400F828287302040002040402040C02041016
:1003F40002041802041C020424020428C2A280027B
:10040400D2A2C2A3C2A48022C2A28002D2A2D2A338
:10041400C2A48016C2A28002D2A2C2A3D2A4800A1D
:10042400C2A28002D2A2D2A3D2A474152527F8E6D0
:10043400F5807F017E00120576E4F5800527E52727
:05044400C39408408E86
:010449002290
:0A057600EF1FAC0670011E4C600F71
:0D058000007528027529C7D529FDD528FA78
:03058D0080E722E2
:1004DA00E4F50EF50FF50AF50BF508F509F50DF536
:1004EA000CF510F511758901758CDC758A2AD2AF65
:0504FA00D2A9C28C2212
:10023B00E4F52775900FE590640F70030202C87FF9
:10024B000A7E00120576E590640F604E75900FAF35
:10025B0090EF24F5601024FE6011146013240770D6
:10026B0015E4F513800D75130180087513028003D7
:10027B007513037512017590F0AF90EF2450600C5D
:10028B0024E0600C24F0600C2470800E7404800653
:10029B0074088002740C2513F513AF27EF3395E028
:1002AB00FEC3EF9496EE648094805011E59064F059
:0D02BB00600B7F017E00120576052780DDB7
:0102C8002213
:10035500E51264017078F512E513B41000506F9042
:10036500036BF828287302039B02039F0203A30271
:1003750003A70203AA0203AE0203B20203B60203F5
:10038500B90203BD0203C10203C50203C80203D3B8
:100395000203CD0203D07F07802B7F0880277F09CA
:1003A50080230204FF7F04801C7F0580187F068060
:1003B5001402051E7F01800D7F0280097F038005E1
:0F03C500020003E4FF02000E02000912049F224F
:1000E200E51164017050F511E50915097002150852
:1000F200D3E509943BE5089400403BE50B450A70C3
:1001020027E50F6417450E700FF508F509F50AF596
:100112000BF50EF50FC28C22E50F150F7002150EAE
:10012200750A00750B3B8008E50B150B7002150A6A
:1001320075080075093BAE0EAF0F7C007D0A1204F4
:100142004A741D2FF8E6F515AE0EAF0F7C007D0A3E
:1001520012044A741D2DF8E6F516751740AE0AAF63
:100162000B7C007D0A12044A741D2FF8E6F518AEC6
:100172000AAF0B7C007D0A12044A741D2DF8E6F5C5
:1001820019751A40AE08AF097C007D0A12044A7440
:100192001D2FF8E6F51BAE08AF097C007D0A12049C
:0901A2004A741D2DF8E6F51C223B
:02000E00AA073F
:10001000E50C640160030200E1E51014603324FE86
:10002000604F14606424FE70030200A91470030280
:1000300000C4240760030200E1AE0EAF0F7C007D18
:100040000A12044AAB05EA75F00AA4FFAEF0EB8091
:1000500016AE0EAF0F7C007D0A12044AAB07EB759B
:10006000F00AA4FFAEF0EA7C002FF50FEC3EF50E8F
:1000700022AE0AAF0B7C007D0A12044AAB05EA757A
:10008000F00AA4FFAEF0EB8016AE0AAF0B7C007D49
:100090000A12044AAB07EB75F00AA4FFAEF0EA7C43
:1000A000002FF50BEC3EF50A22AE08AF097C007D6F
:1000B0000A12044AAB05EA75F00AA4FFAEF0EB7C25
:1000C000002F8017AE08AF097C007D0A12044AABEE
:1000D00007EB75F00AA4AEF07C002AF509EC3EF5BA
:0100E0000817
:0100E10022FC
:1004FF00E50CB401190510E510D394074003E4F59A
:0F050F0010E51064056005E510B4020205102226
:10051E00E50CB401191510E510C3940050037510C5
:0F052E0007E51064056005E510B4020215102200
:06000300C28C750C012205
:10049F00E4F50CF510D3E50F9417E50E9400400624
:1004AF00750E00750F17D3E50B943BE50A940040CA
:1004BF0006750A00750B3BD3E509943BE5089400DC
:0B04CF00400675080075093BD28C2226
:0100090022D4
:0201AB00AD079E
:1001AD00E51475F0328485F014E4FBC374079BB439
:1001BD000800504D9001C8F82828730201E0020193
:1001CD00E40201EC0201F00201F80201FC0202045A
:1001DD00020208C2A28002D2A2C2A3C2A48022C27D
:1001ED00A28002D2A2D2A3C2A48016C2A28002D241
:1001FD00A2C2A3D2A4800AC2A28002D2A2D2A3D24A
:10020D00A4EBB5050FE514C394195008E4F5807FF0
:10021D0001FE800B74152BF8E6F5807F017E001230
:0D022D000576E4F5800BEB64087080051485
:01023A0022A1
:03000B0002055A91
:10055A00C0E0C0D0758CDC758A2A050DE50DB4643F
:0C056A0006750D00751101D0D0D0E032F4
:1002D50002053DE493A3F8E493A34003F68001F2FD
:1002E50008DFF48029E493A3F85407240CC8C3332A
:1002F500C4540F4420C8834004F456800146F6DFF9
:10030500E4800B0102040810204080900590E47EF3
:10031500019360BCA3FF543F30E509541FFEE493ED
:10032500A360010ECF54C025E060A840B8E493A3B4
:10033500FAE493A3F8E493A3C8C582C8CAC583CADF
:10034500F0A3C8C582C8CAC583CADFE9DEE780BE97
:01059C00005E
:10044A00BC000BBE0029EF8DF084FFADF022E4CC96
:10045A00F875F008EF2FFFEE33FEEC33FCEE9DEC5F
:10046A00984005FCEE9DFE0FD5F0E9E4CEFD22EDA5
:10047A00F8F5F0EE8420D21CFEADF075F008EF2FEF
:10048A00FFED33FD4007985006D5F0F222C398FDE0
:05049A000FD5F0EA227D
:00000001FF
